{
  "contractName": "Adoption",
  "abi": [
    {
      "inputs": [],
      "payable": false,
      "stateMutability": "nonpayable",
      "type": "constructor"
    },
    {
      "constant": true,
      "inputs": [
        {
          "internalType": "uint256",
          "name": "",
          "type": "uint256"
        }
      ],
      "name": "adopters",
      "outputs": [
        {
          "internalType": "address",
          "name": "",
          "type": "address"
        }
      ],
      "payable": false,
      "stateMutability": "view",
      "type": "function"
    },
    {
      "constant": true,
      "inputs": [
        {
          "internalType": "address",
          "name": "",
          "type": "address"
        }
      ],
      "name": "adoptionsCount",
      "outputs": [
        {
          "internalType": "uint256",
          "name": "",
          "type": "uint256"
        }
      ],
      "payable": false,
      "stateMutability": "view",
      "type": "function"
    },
    {
      "constant": true,
      "inputs": [
        {
          "internalType": "string",
          "name": "",
          "type": "string"
        }
      ],
      "name": "breedAdoptions",
      "outputs": [
        {
          "internalType": "uint256",
          "name": "",
          "type": "uint256"
        }
      ],
      "payable": false,
      "stateMutability": "view",
      "type": "function"
    },
    {
      "constant": true,
      "inputs": [],
      "name": "customerCount",
      "outputs": [
        {
          "internalType": "uint256",
          "name": "",
          "type": "uint256"
        }
      ],
      "payable": false,
      "stateMutability": "view",
      "type": "function"
    },
    {
      "constant": true,
      "inputs": [
        {
          "internalType": "address",
          "name": "",
          "type": "address"
        }
      ],
      "name": "customers",
      "outputs": [
        {
          "internalType": "bool",
          "name": "",
          "type": "bool"
        }
      ],
      "payable": false,
      "stateMutability": "view",
      "type": "function"
    },
    {
      "constant": true,
      "inputs": [
        {
          "internalType": "uint256",
          "name": "",
          "type": "uint256"
        },
        {
          "internalType": "address",
          "name": "",
          "type": "address"
        }
      ],
      "name": "hasLiked",
      "outputs": [
        {
          "internalType": "bool",
          "name": "",
          "type": "bool"
        }
      ],
      "payable": false,
      "stateMutability": "view",
      "type": "function"
    },
    {
      "constant": true,
      "inputs": [
        {
          "internalType": "uint256",
          "name": "",
          "type": "uint256"
        }
      ],
      "name": "likes",
      "outputs": [
        {
          "internalType": "uint256",
          "name": "",
          "type": "uint256"
        }
      ],
      "payable": false,
      "stateMutability": "view",
      "type": "function"
    },
    {
      "constant": true,
      "inputs": [
        {
          "internalType": "uint256",
          "name": "",
          "type": "uint256"
        }
      ],
      "name": "petBreeds",
      "outputs": [
        {
          "internalType": "string",
          "name": "",
          "type": "string"
        }
      ],
      "payable": false,
      "stateMutability": "view",
      "type": "function"
    },
    {
      "constant": true,
      "inputs": [],
      "name": "totalAdoptions",
      "outputs": [
        {
          "internalType": "uint256",
          "name": "",
          "type": "uint256"
        }
      ],
      "payable": false,
      "stateMutability": "view",
      "type": "function"
    },
    {
      "constant": false,
      "inputs": [
        {
          "internalType": "uint256",
          "name": "petId",
          "type": "uint256"
        }
      ],
      "name": "adopt",
      "outputs": [
        {
          "internalType": "uint256",
          "name": "",
          "type": "uint256"
        }
      ],
      "payable": false,
      "stateMutability": "nonpayable",
      "type": "function"
    },
    {
      "constant": false,
      "inputs": [
        {
          "internalType": "uint256",
          "name": "petId",
          "type": "uint256"
        }
      ],
      "name": "like",
      "outputs": [
        {
          "internalType": "uint256",
          "name": "",
          "type": "uint256"
        }
      ],
      "payable": false,
      "stateMutability": "nonpayable",
      "type": "function"
    },
    {
      "constant": false,
      "inputs": [
        {
          "internalType": "uint256",
          "name": "petId",
          "type": "uint256"
        }
      ],
      "name": "returnPet",
      "outputs": [],
      "payable": true,
      "stateMutability": "payable",
      "type": "function"
    },
    {
      "constant": true,
      "inputs": [],
      "name": "getAdopters",
      "outputs": [
        {
          "internalType": "address[16]",
          "name": "",
          "type": "address[16]"
        }
      ],
      "payable": false,
      "stateMutability": "view",
      "type": "function"
    },
    {
      "constant": true,
      "inputs": [],
      "name": "getLikes",
      "outputs": [
        {
          "internalType": "uint256[16]",
          "name": "",
          "type": "uint256[16]"
        }
      ],
      "payable": false,
      "stateMutability": "view",
      "type": "function"
    },
    {
      "constant": true,
      "inputs": [
        {
          "internalType": "uint256",
          "name": "petId",
          "type": "uint256"
        }
      ],
      "name": "getLikes",
      "outputs": [
        {
          "internalType": "uint256",
          "name": "",
          "type": "uint256"
        }
      ],
      "payable": false,
      "stateMutability": "view",
      "type": "function"
    },
    {
      "constant": true,
      "inputs": [],
      "name": "getMostAdoptedBreed",
      "outputs": [
        {
          "internalType": "string",
          "name": "",
          "type": "string"
        }
      ],
      "payable": false,
      "stateMutability": "view",
      "type": "function"
    },
    {
      "constant": false,
      "inputs": [
        {
          "internalType": "uint256",
          "name": "petId",
          "type": "uint256"
        },
        {
          "internalType": "string",
          "name": "breed",
          "type": "string"
        }
      ],
      "name": "setBreed",
      "outputs": [],
      "payable": false,
      "stateMutability": "nonpayable",
      "type": "function"
    },
    {
      "constant": true,
      "inputs": [],
      "name": "getTotalAdoptions",
      "outputs": [
        {
          "internalType": "uint256",
          "name": "",
          "type": "uint256"
        }
      ],
      "payable": false,
      "stateMutability": "view",
      "type": "function"
    },
    {
      "constant": true,
      "inputs": [],
      "name": "getCustomerCount",
      "outputs": [
        {
          "internalType": "uint256",
          "name": "",
          "type": "uint256"
        }
      ],
      "payable": false,
      "stateMutability": "view",
      "type": "function"
    },
    {
      "constant": true,
      "inputs": [
        {
          "internalType": "address",
          "name": "owner",
          "type": "address"
        }
      ],
      "name": "getPetsByOwner",
      "outputs": [
        {
          "internalType": "uint256[]",
          "name": "",
          "type": "uint256[]"
        }
      ],
      "payable": false,
      "stateMutability": "view",
      "type": "function"
    },
    {
      "constant": true,
      "inputs": [
        {
          "internalType": "uint256",
          "name": "petId",
          "type": "uint256"
        }
      ],
      "name": "getPetLikes",
      "outputs": [
        {
          "internalType": "uint256",
          "name": "",
          "type": "uint256"
        }
      ],
      "payable": false,
      "stateMutability": "view",
      "type": "function"
    },
    {
      "constant": true,
      "inputs": [
        {
          "internalType": "uint256",
          "name": "petId",
          "type": "uint256"
        },
        {
          "internalType": "address",
          "name": "user",
          "type": "address"
        }
      ],
      "name": "hasUserLiked",
      "outputs": [
        {
          "internalType": "bool",
          "name": "",
          "type": "bool"
        }
      ],
      "payable": false,
      "stateMutability": "view",
      "type": "function"
    }
  ],
  "bytecode": "0x60806040523480156200001157600080fd5b506040518060400160405280601081526020017f53636f74746973682054657272696572000000000000000000000000000000008152506022600080815260200190815260200160002090805190602001906200007092919062000617565b506040518060400160405280601081526020017f53636f747469736820546572726965720000000000000000000000000000000081525060226000600181526020019081526020016000209080519060200190620000d092919062000617565b506040518060400160405280600e81526020017f4672656e63682042756c6c646f67000000000000000000000000000000000000815250602260006002815260200190815260200160002090805190602001906200013092919062000617565b506040518060400160405280600581526020017f426f786572000000000000000000000000000000000000000000000000000000815250602260006003815260200190815260200160002090805190602001906200019092919062000617565b506040518060400160405280600e81526020017f4672656e63682042756c6c646f6700000000000000000000000000000000000081525060226000600481526020019081526020016000209080519060200190620001f092919062000617565b506040518060400160405280600e81526020017f4672656e63682042756c6c646f67000000000000000000000000000000000000815250602260006005815260200190815260200160002090805190602001906200025092919062000617565b506040518060400160405280601081526020017f476f6c64656e205265747269657665720000000000000000000000000000000081525060226000600681526020019081526020016000209080519060200190620002b092919062000617565b506040518060400160405280601081526020017f476f6c64656e2052657472696576657200000000000000000000000000000000815250602260006007815260200190815260200160002090805190602001906200031092919062000617565b506040518060400160405280600e81526020017f4672656e63682042756c6c646f67000000000000000000000000000000000000815250602260006008815260200190815260200160002090805190602001906200037092919062000617565b506040518060400160405280600581526020017f426f78657200000000000000000000000000000000000000000000000000000081525060226000600981526020019081526020016000209080519060200190620003d092919062000617565b506040518060400160405280600581526020017f426f78657200000000000000000000000000000000000000000000000000000081525060226000600a815260200190815260200160002090805190602001906200043092919062000617565b506040518060400160405280601081526020017f53636f747469736820546572726965720000000000000000000000000000000081525060226000600b815260200190815260200160002090805190602001906200049092919062000617565b506040518060400160405280600e81526020017f4672656e63682042756c6c646f6700000000000000000000000000000000000081525060226000600c81526020019081526020016000209080519060200190620004f092919062000617565b506040518060400160405280601081526020017f476f6c64656e205265747269657665720000000000000000000000000000000081525060226000600d815260200190815260200160002090805190602001906200055092919062000617565b506040518060400160405280601081526020017f476f6c64656e205265747269657665720000000000000000000000000000000081525060226000600e81526020019081526020016000209080519060200190620005b092919062000617565b506040518060400160405280601081526020017f476f6c64656e205265747269657665720000000000000000000000000000000081525060226000600f815260200190815260200160002090805190602001906200061092919062000617565b50620006c6565b828054600181600116156101000203166002900490600052602060002090601f016020900481019282601f106200065a57805160ff19168380011785556200068b565b828001600101855582156200068b579182015b828111156200068a5782518255916020019190600101906200066d565b5b5090506200069a91906200069e565b5090565b620006c391905b80821115620006bf576000816000905550600101620006a5565b5090565b90565b61193280620006d66000396000f3fe6080604052600436106101355760003560e01c80637fe536f8116100ab578063bdb92e8e1161006f578063bdb92e8e14610785578063c7320e4d146107b3578063d3e577c7146107de578063e82935da1461082d578063e8f68e761461087c578063f1a5db6d1461095857610135565b80637fe536f8146105b95780638588b2c5146106495780638fb7092c146106985780639757e8a31461070b578063a209081e1461073657610135565b806343ae80d3116100fd57806343ae80d31461033a5780635db1cf3b146103b557806362a1c5831461041a5780636a5eb0791461046d5780637d780ef1146104985780637e9dffe61461056a57610135565b80632027d7461461013a578063336989ae1461016557806336dc7676146101ce5780633de4eb1714610274578063402f0fa0146102c7575b600080fd5b34801561014657600080fd5b5061014f610a0c565b6040518082815260200191505060405180910390f35b34801561017157600080fd5b506101b46004803603602081101561018857600080fd5b81019080803573ffffffffffffffffffffffffffffffffffffffff169060200190929190505050610a16565b604051808215151515815260200191505060405180910390f35b3480156101da57600080fd5b5061021d600480360360208110156101f157600080fd5b81019080803573ffffffffffffffffffffffffffffffffffffffff169060200190929190505050610a36565b6040518080602001828103825283818151815260200191508051906020019060200280838360005b83811015610260578082015181840152602081019050610245565b505050509050019250505060405180910390f35b34801561028057600080fd5b50610289610baa565b6040518082601060200280838360005b838110156102b4578082015181840152602081019050610299565b5050505090500191505060405180910390f35b3480156102d357600080fd5b50610320600480360360408110156102ea57600080fd5b8101908080359060200190929190803573ffffffffffffffffffffffffffffffffffffffff169060200190929190505050610c2b565b604051808215151515815260200191505060405180910390f35b34801561034657600080fd5b506103736004803603602081101561035d57600080fd5b8101908080359060200190929190505050610d16565b604051808273ffffffffffffffffffffffffffffffffffffffff1673ffffffffffffffffffffffffffffffffffffffff16815260200191505060405180910390f35b3480156103c157600080fd5b50610404600480360360208110156103d857600080fd5b81019080803573ffffffffffffffffffffffffffffffffffffffff169060200190929190505050610d49565b6040518082815260200191505060405180910390f35b34801561042657600080fd5b5061042f610d61565b6040518082601060200280838360005b8381101561045a57808201518184015260208101905061043f565b5050505090500191505060405180910390f35b34801561047957600080fd5b50610482610dab565b6040518082815260200191505060405180910390f35b3480156104a457600080fd5b50610568600480360360408110156104bb57600080fd5b8101908080359060200190929190803590602001906401000000008111156104e257600080fd5b8201836020820111156104f457600080fd5b8035906020019184600183028401116401000000008311171561051657600080fd5b91908080601f016020809104026020016040519081016040528093929190818152602001838380828437600081840152601f19601f820116905080830192505050505050509192919290505050610db1565b005b34801561057657600080fd5b506105a36004803603602081101561058d57600080fd5b8101908080359060200190929190505050610df8565b6040518082815260200191505060405180910390f35b3480156105c557600080fd5b506105ce610e10565b6040518080602001828103825283818151815260200191508051906020019080838360005b8381101561060e5780820151818401526020810190506105f3565b50505050905090810190601f16801561063b5780820380516001836020036101000a031916815260200191505b509250505060405180910390f35b34801561065557600080fd5b506106826004803603602081101561066c57600080fd5b8101908080359060200190929190505050610f7e565b6040518082815260200191505060405180910390f35b3480156106a457600080fd5b506106f1600480360360408110156106bb57600080fd5b8101908080359060200190929190803573ffffffffffffffffffffffffffffffffffffffff169060200190929190505050611318565b604051808215151515815260200191505060405180910390f35b34801561071757600080fd5b50610720611346565b6040518082815260200191505060405180910390f35b34801561074257600080fd5b5061076f6004803603602081101561075957600080fd5b810190808035906020019092919050505061134c565b6040518082815260200191505060405180910390f35b6107b16004803603602081101561079b57600080fd5b810190808035906020019092919050505061137e565b005b3480156107bf57600080fd5b506107c8611506565b6040518082815260200191505060405180910390f35b3480156107ea57600080fd5b506108176004803603602081101561080157600080fd5b8101908080359060200190929190505050611510565b6040518082815260200191505060405180910390f35b34801561083957600080fd5b506108666004803603602081101561085057600080fd5b81019080803590602001909291905050506115ab565b6040518082815260200191505060405180910390f35b34801561088857600080fd5b506109426004803603602081101561089f57600080fd5b81019080803590602001906401000000008111156108bc57600080fd5b8201836020820111156108ce57600080fd5b803590602001918460018302840111640100000000831117156108f057600080fd5b91908080601f016020809104026020016040519081016040528093929190818152602001838380828437600081840152601f19601f820116905080830192505050505050509192919290505050611734565b6040518082815260200191505060405180910390f35b34801561096457600080fd5b506109916004803603602081101561097b57600080fd5b8101908080359060200190929190505050611762565b6040518080602001828103825283818151815260200191508051906020019080838360005b838110156109d15780820151818401526020810190506109b6565b50505050905090810190601f1680156109fe5780820380516001836020036101000a031916815260200191505b509250505060405180910390f35b6000602454905090565b60256020528060005260406000206000915054906101000a900460ff1681565b6060600080905060008090505b6010811015610ac4578373ffffffffffffffffffffffffffffffffffffffff1660008260108110610a7057fe5b0160009054906101000a900473ffffffffffffffffffffffffffffffffffffffff1673ffffffffffffffffffffffffffffffffffffffff161415610ab75781806001019250505b8080600101915050610a43565b50606081604051908082528060200260200182016040528015610af65781602001602082028038833980820191505090505b509050600080905060008090505b6010811015610b9e578573ffffffffffffffffffffffffffffffffffffffff1660008260108110610b3157fe5b0160009054906101000a900473ffffffffffffffffffffffffffffffffffffffff1673ffffffffffffffffffffffffffffffffffffffff161415610b915780838381518110610b7c57fe5b60200260200101818152505081806001019250505b8080600101915050610b04565b50819350505050919050565b610bb2611812565b6000601080602002604051908101604052809291908260108015610c21576020028201915b8160009054906101000a900473ffffffffffffffffffffffffffffffffffffffff1673ffffffffffffffffffffffffffffffffffffffff1681526020019060010190808311610bd7575b5050505050905090565b6000808310158015610c3e5750600f8311155b610cb0576040517f08c379a000000000000000000000000000000000000000000000000000000000815260040180806020018281038252600e8152602001807f496e76616c69642070657420494400000000000000000000000000000000000081525060200191505060405180910390fd5b6020600084815260200190815260200160002060008373ffffffffffffffffffffffffffffffffffffffff1673ffffffffffffffffffffffffffffffffffffffff16815260200190815260200160002060009054906101000a900460ff16905092915050565b60008160108110610d2357fe5b016000915054906101000a900473ffffffffffffffffffffffffffffffffffffffff1681565b60266020528060005260406000206000915090505481565b610d69611835565b60108080602002604051908101604052809291908260108015610da1576020028201915b815481526020019060010190808311610d8d575b5050505050905090565b60235481565b60008210158015610dc35750600f8211155b610dcc57600080fd5b80602260008481526020019081526020016000209080519060200190610df3929190611858565b505050565b60108160108110610e0557fe5b016000915090505481565b606080604051806020016040528060008152509050600080905060008090505b6010811015610f75576060602260008381526020019081526020016000208054600181600116156101000203166002900480601f016020809104026020016040519081016040528092919081815260200182805460018160011615610100020316600290048015610ee25780601f10610eb757610100808354040283529160200191610ee2565b820191906000526020600020905b815481529060010190602001808311610ec557829003601f168201915b5050505050905060006021826040518082805190602001908083835b60208310610f215780518252602082019150602081019050602083039250610efe565b6001836020036101000a038019825116818451168082178552505050505050905001915050908152602001604051809103902054905083811115610f66578093508194505b50508080600101915050610e30565b50819250505090565b6000808210158015610f915750600f8211155b611003576040517f08c379a000000000000000000000000000000000000000000000000000000000815260040180806020018281038252600e8152602001807f496e76616c69642070657420494400000000000000000000000000000000000081525060200191505060405180910390fd5b6000602660003373ffffffffffffffffffffffffffffffffffffffff1673ffffffffffffffffffffffffffffffffffffffff16815260200190815260200160002054141561105e576024600081548092919060010191905055505b602660003373ffffffffffffffffffffffffffffffffffffffff1673ffffffffffffffffffffffffffffffffffffffff1681526020019081526020016000206000815480929190600101919050555033600083601081106110bb57fe5b0160006101000a81548173ffffffffffffffffffffffffffffffffffffffff021916908373ffffffffffffffffffffffffffffffffffffffff1602179055506000602160226000858152602001908152602001600020604051808280546001816001161561010002031660029004801561116c5780601f1061114a57610100808354040283529182019161116c565b820191906000526020600020905b815481529060010190602001808311611158575b5050915050908152602001604051809103902054111561121d57600160216022600085815260200190815260200160002060405180828054600181600116156101000203166002900480156111f85780601f106111d65761010080835404028352918201916111f8565b820191906000526020600020905b8154815290600101906020018083116111e4575b50509150509081526020016040518091039020600082825401925050819055506112a7565b6001602160226000858152602001908152602001600020604051808280546001816001161561010002031660029004801561128f5780601f1061126d57610100808354040283529182019161128f565b820191906000526020600020905b81548152906001019060200180831161127b575b50509150509081526020016040518091039020819055505b60016023600082825401925050819055506001602560003373ffffffffffffffffffffffffffffffffffffffff1673ffffffffffffffffffffffffffffffffffffffff16815260200190815260200160002060006101000a81548160ff021916908315150217905550819050919050565b602080528160005260406000206020528060005260406000206000915091509054906101000a900460ff1681565b60245481565b600080821015801561135f5750600f8211155b61136857600080fd5b6010826010811061137557fe5b01549050919050565b600081101580156113905750600f8111155b61139957600080fd5b3373ffffffffffffffffffffffffffffffffffffffff16600082601081106113bd57fe5b0160009054906101000a900473ffffffffffffffffffffffffffffffffffffffff1673ffffffffffffffffffffffffffffffffffffffff16146113ff57600080fd5b662386f26fc1000034101561141357600080fd5b600080826010811061142157fe5b0160006101000a81548173ffffffffffffffffffffffffffffffffffffffff021916908373ffffffffffffffffffffffffffffffffffffffff160217905550600160216022600084815260200190815260200160002060405180828054600181600116156101000203166002900480156114d25780601f106114b05761010080835404028352918201916114d2565b820191906000526020600020905b8154815290600101906020018083116114be575b5050915050908152602001604051809103902060008282540392505081905550600160236000828254039250508190555050565b6000602354905090565b60008082101580156115235750600f8211155b611595576040517f08c379a000000000000000000000000000000000000000000000000000000000815260040180806020018281038252600e8152602001807f496e76616c69642070657420494400000000000000000000000000000000000081525060200191505060405180910390fd5b601082601081106115a257fe5b01549050919050565b60008082101580156115be5750600f8211155b6115c757600080fd5b6020600083815260200190815260200160002060003373ffffffffffffffffffffffffffffffffffffffff1673ffffffffffffffffffffffffffffffffffffffff16815260200190815260200160002060009054906101000a900460ff1615611698576040517f08c379a000000000000000000000000000000000000000000000000000000000815260040180806020018281038252601f8152602001807f596f75206861766520616c7265616479206c696b65642074686973207065740081525060200191505060405180910390fd5b6001601083601081106116a757fe5b016000828254019250508190555060016020600084815260200190815260200160002060003373ffffffffffffffffffffffffffffffffffffffff1673ffffffffffffffffffffffffffffffffffffffff16815260200190815260200160002060006101000a81548160ff0219169083151502179055506010826010811061172b57fe5b01549050919050565b6021818051602081018201805184825260208301602085012081835280955050505050506000915090505481565b60226020528060005260406000206000915090508054600181600116156101000203166002900480601f01602080910402602001604051908101604052809291908181526020018280546001816001161561010002031660029004801561180a5780601f106117df5761010080835404028352916020019161180a565b820191906000526020600020905b8154815290600101906020018083116117ed57829003601f168201915b505050505081565b604051806102000160405280601090602082028038833980820191505090505090565b604051806102000160405280601090602082028038833980820191505090505090565b828054600181600116156101000203166002900490600052602060002090601f016020900481019282601f1061189957805160ff19168380011785556118c7565b828001600101855582156118c7579182015b828111156118c65782518255916020019190600101906118ab565b5b5090506118d491906118d8565b5090565b6118fa91905b808211156118f65760008160009055506001016118de565b5090565b9056fea265627a7a7231582089f0b3ca9f39d9047361200c8bfc532394b467a921c137123bf3abf4f1a5933264736f6c63430005110032",
  "source": "pragma solidity ^0.5.0;\r\n\r\ncontract Adoption {\r\n    address[16] public adopters;\r\n    uint[16] public likes; // Track likes for each pet\r\n    mapping(uint => mapping(address => bool)) public hasLiked;\r\n    mapping(string => uint) public breedAdoptions; // Track adoptions per breed\r\n    mapping(uint => string) public petBreeds; // Map pet IDs to breeds\r\n    uint public totalAdoptions;\r\n    uint public customerCount;\r\n    mapping(address => bool) public customers;\r\n    mapping(address => uint) public adoptionsCount;\r\n\r\n    constructor() public {\r\n        // Initialize breeds for each petId (example data)\r\n        petBreeds[0] = \"Scottish Terrier\";\r\n        petBreeds[1] = \"Scottish Terrier\";\r\n        petBreeds[2] = \"French Bulldog\";\r\n        petBreeds[3] = \"Boxer\";\r\n        petBreeds[4] = \"French Bulldog\";\r\n        petBreeds[5] = \"French Bulldog\";\r\n        petBreeds[6] = \"Golden Retriever\";\r\n        petBreeds[7] = \"Golden Retriever\";\r\n        petBreeds[8] = \"French Bulldog\";\r\n        petBreeds[9] = \"Boxer\";\r\n        petBreeds[10] = \"Boxer\";\r\n        petBreeds[11] = \"Scottish Terrier\";\r\n        petBreeds[12] = \"French Bulldog\";\r\n        petBreeds[13] = \"Golden Retriever\";\r\n        petBreeds[14] = \"Golden Retriever\";\r\n        petBreeds[15] = \"Golden Retriever\";\r\n    }\r\n\r\n    // Adopting a pet\r\n    function adopt(uint petId) public returns (uint) {\r\n        require(petId >= 0 && petId <= 15, \"Invalid pet ID\");\r\n        // Increment only on first adption. Avoid duplication\r\n        if (adoptionsCount[msg.sender] == 0) {\r\n            customerCount++;\r\n        }\r\n\r\n        adoptionsCount[msg.sender]++;\r\n\r\n        // Mark the pet as adopted by the sender\r\n        adopters[petId] = msg.sender;\r\n\r\n        // Increment the breed adoption count\r\n        if (breedAdoptions[petBreeds[petId]] > 0) {\r\n            breedAdoptions[petBreeds[petId]] += 1;\r\n        } else {\r\n            breedAdoptions[petBreeds[petId]] = 1;\r\n        }\r\n\r\n        // Increment the total number of adoptions\r\n        totalAdoptions += 1;\r\n\r\n        // Mark the sender as a customer\r\n        customers[msg.sender] = true;\r\n\r\n        return petId;\r\n    }\r\n\r\n    // Liking a pet\r\n    function like(uint petId) public returns (uint) {\r\n        require(petId >= 0 && petId <= 15);\r\n        require(\r\n            !hasLiked[petId][msg.sender],\r\n            \"You have already liked this pet\"\r\n        );\r\n\r\n        likes[petId] += 1;\r\n        hasLiked[petId][msg.sender] = true;\r\n        return likes[petId];\r\n    }\r\n    // Get the number of likes for a pet\r\n    function getLikes(uint petId) public view returns (uint) {\r\n        require(petId >= 0 && petId <= 15);\r\n        return likes[petId];\r\n    }\r\n\r\n    function returnPet(uint petId) public payable {\r\n        require(petId >= 0 && petId <= 15);\r\n        require(adopters[petId] == msg.sender);\r\n        require(msg.value >= 0.01 ether); // Example return fee\r\n        \r\n        adopters[petId] = address(0);\r\n        breedAdoptions[petBreeds[petId]] -= 1;\r\n        totalAdoptions -= 1;\r\n    }\r\n\r\n    // Retrieving the adopters\r\n    function getAdopters() public view returns (address[16] memory) {\r\n        return adopters;\r\n    }\r\n\r\n    // Retrieving the likes\r\n    function getLikes() public view returns (uint[16] memory) {\r\n        return likes;\r\n    }\r\n\r\n    // Function to get the most adopted breed\r\n    function getMostAdoptedBreed() public view returns (string memory) {\r\n        string memory mostAdoptedBreed = \"\";\r\n        uint highestCount = 0;\r\n\r\n        for (uint i = 0; i < 16; i++) {\r\n            string memory breed = petBreeds[i];\r\n            uint count = breedAdoptions[breed];\r\n            if (count > highestCount) {\r\n                highestCount = count;\r\n                mostAdoptedBreed = breed;\r\n            }\r\n        }\r\n        return mostAdoptedBreed;\r\n    }\r\n    // For test only\r\n    function setBreed(uint petId, string memory breed) public {\r\n        require(petId >= 0 && petId <= 15);\r\n        petBreeds[petId] = breed;\r\n    }\r\n\r\n    function getTotalAdoptions() public view returns (uint) {\r\n        return totalAdoptions;\r\n    }\r\n\r\n    function getCustomerCount() public view returns (uint) {\r\n        // uint count = 0;\r\n        // for (uint i = 0; i < 16; i++) {\r\n        //     if (adopters[i] != address(0)) {\r\n        //         count += 1;\r\n        //     }\r\n        // }\r\n        // return count;\r\n        return customerCount;\r\n    }\r\n\r\n    function getPetsByOwner(\r\n        address owner\r\n    ) public view returns (uint[] memory) {\r\n        uint ownedPetCount = 0;\r\n\r\n        // First, count how many pets the owner has\r\n        for (uint i = 0; i < 16; i++) {\r\n            if (adopters[i] == owner) {\r\n                ownedPetCount++;\r\n            }\r\n        }\r\n\r\n        // Initialize the array with the correct size\r\n        uint[] memory result = new uint[](ownedPetCount);\r\n        uint counter = 0;\r\n\r\n        // Populate the array with the names of the owned pets\r\n        for (uint i = 0; i < 16; i++) {\r\n            if (adopters[i] == owner) {\r\n                result[counter] = i;\r\n                counter++;\r\n            }\r\n        }\r\n\r\n        return result;\r\n    }\r\n\r\n    function getPetLikes(uint petId) public view returns (uint) {\r\n        require(petId >= 0 && petId <= 15, \"Invalid pet ID\");\r\n        return likes[petId];\r\n    }\r\n\r\n    function hasUserLiked(uint petId, address user) public view returns (bool) {\r\n        require(petId >= 0 && petId <= 15, \"Invalid pet ID\");\r\n        return hasLiked[petId][user];\r\n    }\r\n}\r\n",
  "sourcePath": "D:/UofT/APS1050/pet_shop_DApp_1003940854/contracts/Adoption.sol",
  "compiler": {
    "name": "solc",
    "version": "0.5.17+commit.d19bba13.Emscripten.clang"
  },
  "schemaVersion": "3.0.22",
  "updatedAt": "2024-08-09T22:34:55.053Z",
  "networkType": "ethereum",
  "devdoc": {
    "methods": {}
  },
  "userdoc": {
    "methods": {}
  }
}